{
  "_format": "hh-sol-artifact-1",
  "contractName": "Counter",
  "sourceName": "contracts/Counter.sol",
  "abi": [
    {
      "inputs": [],
      "name": "increment",
      "outputs": [],
      "stateMutability": "nonpayable",
      "type": "function"
    },
    {
      "inputs": [],
      "name": "retrieve",
      "outputs": [
        {
          "internalType": "uint256",
          "name": "",
          "type": "uint256"
        }
      ],
      "stateMutability": "view",
      "type": "function"
    }
  ],
  "bytecode": "0x60806040526000805534801561001457600080fd5b5060c1806100236000396000f3fe6080604052348015600f57600080fd5b506004361060325760003560e01c80632e64cec1146037578063d09de08a14604c575b600080fd5b60005460405190815260200160405180910390f35b60526054565b005b60005460609060016065565b600055565b80820180821115608557634e487b7160e01b600052601160045260246000fd5b9291505056fea2646970667358221220a96e9009b9d7e39bf0f067264a744d80d42e6a40e418d906f0cf7ccccef8a83464736f6c63430008130033",
  "linkReferences": {},
  "deployedLinkReferences": {}
}